:040000000200813247
:03000B000200E709
:0100130032BA
:01001B0032B2
:0100230032AA
:01002B0032A2
:01003300329A
:01003B003292
:01004300328A
:01004B003282
:01005300327A
:01005B003272
:01006300326A
:01006B003262
:01007300325A
:03007B000201235C
:0300E40002007E99
:03007E0002015824
:2000E700C0E0C007C006C0D075D000E56345646014E56324FFFEE56434FFFF8E638F64EEDC
:200107004F7002D201E562600AE56214FF8F627002D200D0D0D006D007D0E032C0E0C0076E
:20012700C000C0D075D000C2F8E561FF04F561EF2421F8A69A7401B56107756205C20080AE
:20014700077440B56102C2AFD0D0D000D007D0E03275A70075A63843A401AFAE75A63943E0
:20016700A401AEAE75C7AA75C7558F8475C7AA75C7558E8575C6FF75C5F375F85075C4887E
:2001870053B3BF53B4BF439C01D28CD2A975C7AA75C755439F01D2AF30AF0302024A3002D7
:2001A70006758208120345AF21BFA0028066BFA2028051BFA3028051BFA4028015BFA602F8
:2001C7008037BFAB03020256BFAE028005BFB16B800D1202631202A0E4F563F564805C752D
:2001E700820C1202B6120263856929856A2A856B2B856C2C1202A0804212026375292912FB
:2002070002A080371202E8803212030C1202631202A0802712030CE4F565F566852D67F515
:2002270068AF2E7E00AC67AD68EC4206ED42078E678F68D202758210120345756200756194
:1C02470000D2AF30000375610020010302019FC2AF75C7AA75C755759F8080FE51
:0A00DA007563F4756401C201C202EF
:20026300E4F508F5097D00BD40005019ED2421F987047B00AA08AF09EC2AFAEB3FFF8A0853
:200283008F090D80E2AE088E21AF098F22E525FF04F525EF7006E526FF04F526227F00BF71
:2002A3004000500EEF2421F9879A10F90280FB0F80ED22AF828FAF75A700E4BFC00104FF39
:2002C3007E00BE0400501D8EA6EF6006BE030375A60475C7AA75C75543A401EE2469F8A68A
:2002E300AE0E80DE227582C01202B6120263856929856A2A856B2B752CFF856C2D752EFF1C
:20030300752FFF7530FF0202A075C7AA75C75543A50175AEFF75AF227E007F008F0574C45E
:200323002D401E8EA68FA775C7AA75C75543A4018E048F0574802CFCE43DFD8C068D078060
:20034300DB2285826DE4F56EF56FAC6DBC400040030203C175AF218565A68566A7EC2421C8
:20036300F987AE75C7AA75C75543A40175AF0075C7AA75C75543A401EC2421F9E7B5AE05F1
:200383007443B59F0280FEEC2421F987037A00AF6EAE6FEB2FFFEA3EFE8F6E8E6F0565E4E0
:2003A300B565020566E567B56510E568B5660B7408B56D02D201C20280040C02034F12029B
:0C03C30063AD6E8D29AF6F8F2A0202A07F
:0600B000E478FFF6D8FD24
:20008E007900E94400601B7A009003D3780175A000E493F2A308B8000205A0D9F4DAF27542
:0200AE00A0FFB1
:2000B6007800E84400600A790175A000E4F309D8FC7800E84400600C7900900001E4F0A348
:0400D600D8FCD9FA7F
:0D00810075816F1203CFE582600302007EDF
:0403CF007582002211
:00000001FF
