:040000000200813247
:03000B000200E709
:0100130032BA
:01001B0032B2
:0100230032AA
:01002B0032A2
:01003300329A
:01003B003292
:01004300328A
:01004B003282
:01005300327A
:01005B003272
:01006300326A
:01006B003262
:01007300325A
:03007B000201235C
:0300E40002007E99
:03007E0002015824
:2000E700C0E0C007C006C0D075D000E56345646014E56324FFFEE56434FFFF8E638F64EEDC
:200107004F7002D201E562600AE56214FF8F627002D200D0D0D006D007D0E032C0E0C0076E
:20012700C000C0D075D000C2F8E561FF04F561EF2421F8A69A7401B56107756205C20080AE
:20014700077440B56102C2AFD0D0D000D007D0E03275A70075A63043A401AFAE75A63143F0
:20016700A401AEAEEF2FFF74015E4F24F3FFC313FE53070175C7AA75C7558E8475C7AA750F
:20018700C7558F8575C6FF75C5F775F85075C48853B3BF53B4BF439C01D28CD2A975C7AA15
:2001A70075C755439F01D2AF30AF0302025A300206758208120366AF21BFA0028066BFA2D9
:2001C700028051BFA3028051BFA4028015BFA6028037BFAB03020266BFAE028005BFB16B52
:2001E700800D1202731202B0E4F563F564805C75820C1202C6120273856929856A2A856B2B
:200207002B856C2C1202B080421202737529291202B08037120309803212032D1202731295
:2002270002B0802712032DE4F565F566852D67F568AF2E7E00AC67AD68EC4206ED42078E92
:20024700678F68D202758210120366756200756100D2AF3000037561002001030201AFC214
:0C026700AF75C7AA75C755759F8080FE53
:0A00DA0075635E756401C201C20285
:20027300E4F508F5097D00BD40005019ED2421F987047B00AA08AF09EC2AFAEB3FFF8A0843
:200293008F090D80E2AE088E21AF098F22E525FF04F525EF7006E526FF04F526227F00BF61
:2002B3004000500EEF2421F9879A10F90280FB0F80ED22AF828FAF75A700E4BFC00104FE2A
:2002D300E4BF0C0104FF7D00BD040050288DA6EE6006BD030375A60475C7AA75C75543A4DB
:2002F30001ED2469F8A6AEEF6008BD01057467B56A030D80D3227582C01202C612027385EE
:200313006929856A2A856B2B752CFF856C2D752EFF752FFF7530FF0202B075C7AA75C75532
:2003330043A50175AEFF75AF227E007F008F0574BC2D401E8EA68FA775C7AA75C75543A445
:20035300018E048F0574802CFCE43DFD8C068D0780DB2285826DE4F56EF56FAC6DBC400052
:2003730040030203E275AF218565A68566A7EC2421F987AE75C7AA75C75543A40175AF00F7
:2003930075C7AA75C75543A401EC2421F9E7B5AE057443B59F0280FEEC2421F987037A00B9
:2003B300AF6EAE6FEB2FFFEA3EFE8F6E8E6F0565E4B565020566E567B56510E568B5660BF9
:1D03D3007408B56D02D201C20280040C020370120273AD6E8D29AF6F8F2A0202B0EE
:0600B000E478FFF6D8FD24
:20008E007900E94400601B7A009003F4780175A000E493F2A308B8000205A0D9F4DAF27521
:0200AE00A0FFB1
:2000B6007800E84400600A790175A000E4F309D8FC7800E84400600C7900900001E4F0A348
:0400D600D8FCD9FA7F
:0D00810075816F1203F0E582600302007EBE
:0403F00075820022F0
:00000001FF
