:040000000200813247
:03000B000200E709
:0100130032BA
:01001B0032B2
:0100230032AA
:01002B0032A2
:01003300329A
:01003B003292
:01004300328A
:01004B003282
:01005300327A
:01005B003272
:01006300326A
:01006B003262
:01007300325A
:03007B000201235C
:0300E40002007E99
:03007E0002015824
:2000E700C0E0C007C006C0D075D000E56345646014E56324FFFEE56434FFFF8E638F64EEDC
:200107004F7002D201E562600AE56214FF8F627002D200D0D0D006D007D0E032C0E0C0076E
:20012700C000C0D075D000C2F8E561FF04F561EF2421F8A69A7401B56107756205C20080AE
:20014700077440B56102C2AFD0D0D000D007D0E03275A70075A63043A401AFAE75A63143F0
:20016700A401AEAEEF2FFF74015E4F24F3FFC313FE53070175C7AA75C7558E8475C7AA750F
:20018700C7558F8575C6FF75C5F775F85075C48853B3BF53B4BF439C01D28CD2A975C7AA15
:2001A70075C755439F01D2AF30AF0302025C300206758208120367AF21BFA0028068BFA2D4
:2001C700028053BFA3028053BFA4028015BFA6028039BFAB03020268BFAE028005BFB16D48
:2001E700800D1202751202B2E4F563F564805E75820C1202C8856929856A2A7467B56A069A
:20020700856B2B856C2C1202B280421202757529291202B2803712030D803212032E12021F
:20022700751202B2802712032EE4F565F566852D67F568AF2E7E00AC67AD68EC4206ED429D
:20024700078E678F68D202758210120367756200756100D2AF3000037561002001030201EF
:0E026700AFC2AF75C7AA75C755759F8080FEE0
:0A00DA0075635E756401C201C20285
:20027500E4F508F5097D00BD40005019ED2421F987047B00AA08AF09EC2AFAEB3FFF8A0841
:200295008F090D80E2AE088E21AF098F22E525FF04F525EF7006E526FF04F526227F00BF5F
:2002B5004000500EEF2421F9879A10F90280FB0F80ED22AF828FAF75A700E4BFC00104FE28
:2002D500E4BF0C0104FF7D00BD040050288DA6EE6006BD030375A60475C7AA75C75543A4D9
:2002F50001ED2469F8A6AEEF6008BD01057467B56A030D80D30202757582C01202C88569B1
:2003150029856A2A856B2B752CFF856C2D752EFF752FFF7530FF0202B275C7AA75C7554354
:20033500A50175AEFF75AF227E007F008F0574BC2D401E8EA68FA775C7AA75C75543A40185
:200355008E048F0574802CFCE43DFD8C068D0780DB2285826DE4F56EF56FAC6DBC40004011
:20037500030203E375AF218565A68566A7EC2421F987AE75C7AA75C75543A40175AF0075BF
:20039500C7AA75C75543A401EC2421F9E7B5AE057443B59F0280FEEC2421F987037A00AF7D
:2003B5006EAE6FEB2FFFEA3EFE8F6E8E6F0565E4B565020566E567B56510E568B5660B7432
:1C03D50008B56D02D201C20280040C020371120275AD6E8D29AF6F8F2A0202B25C
:0600B000E478FFF6D8FD24
:20008E007900E94400601B7A009003F5780175A000E493F2A308B8000205A0D9F4DAF27520
:0200AE00A0FFB1
:2000B6007800E84400600A790175A000E4F309D8FC7800E84400600C7900900001E4F0A348
:0400D600D8FCD9FA7F
:0D00810075816F1203F1E582600302007EBD
:0403F10075820022EF
:00000001FF
